{"contracts/Contract.sol":{"Contract":{"abi":[{"inputs":[{"internalType":"contract IWorldID","name":"_worldId","type":"address"},{"internalType":"string","name":"_appId","type":"string"},{"internalType":"string","name":"_actionId","type":"string"}],"stateMutability":"nonpayable","type":"constructor"},{"inputs":[],"name":"InvalidNullifier","type":"error"},{"inputs":[{"internalType":"address","name":"signal","type":"address"},{"internalType":"uint256","name":"root","type":"uint256"},{"internalType":"uint256","name":"nullifierHash","type":"uint256"},{"internalType":"uint256[8]","name":"proof","type":"uint256[8]"}],"name":"verifyAndExecute","outputs":[],"stateMutability":"nonpayable","type":"function"}],"evm":{"bytecode":{"linkReferences":{},"object":"60e0604052600160c0908152503480156200001957600080fd5b5060405162000a1838038062000a1883398181016040528101906200003f919062000341565b8273ffffffffffffffffffffffffffffffffffffffff1660808173ffffffffffffffffffffffffffffffffffffffff1681525050620000e2620000ae836040516020016200008e919062000428565b604051602081830303815290604052620000f260201b620001ce1760201c565b82604051602001620000c292919062000470565b604051602081830303815290604052620000f260201b620001ce1760201c565b60a0818152505050505062000502565b6000600882604051602001620001099190620004e9565b6040516020818303038152906040528051906020012060001c901c9050919050565b6000604051905090565b600080fd5b600080fd5b600073ffffffffffffffffffffffffffffffffffffffff82169050919050565b60006200016c826200013f565b9050919050565b600062000180826200015f565b9050919050565b620001928162000173565b81146200019e57600080fd5b50565b600081519050620001b28162000187565b92915050565b600080fd5b600080fd5b6000601f19601f8301169050919050565b7f4e487b7100000000000000000000000000000000000000000000000000000000600052604160045260246000fd5b6200020d82620001c2565b810181811067ffffffffffffffff821117156200022f576200022e620001d3565b5b80604052505050565b6000620002446200012b565b905062000252828262000202565b919050565b600067ffffffffffffffff821115620002755762000274620001d3565b5b6200028082620001c2565b9050602081019050919050565b60005b83811015620002ad57808201518184015260208101905062000290565b83811115620002bd576000848401525b50505050565b6000620002da620002d48462000257565b62000238565b905082815260208101848484011115620002f957620002f8620001bd565b5b620003068482856200028d565b509392505050565b600082601f830112620003265762000325620001b8565b5b815162000338848260208601620002c3565b91505092915050565b6000806000606084860312156200035d576200035c62000135565b5b60006200036d86828701620001a1565b935050602084015167ffffffffffffffff8111156200039157620003906200013a565b5b6200039f868287016200030e565b925050604084015167ffffffffffffffff811115620003c357620003c26200013a565b5b620003d1868287016200030e565b9150509250925092565b600081519050919050565b600081905092915050565b6000620003fe82620003db565b6200040a8185620003e6565b93506200041c8185602086016200028d565b80840191505092915050565b6000620004368284620003f1565b915081905092915050565b6000819050919050565b6000819050919050565b6200046a620004648262000441565b6200044b565b82525050565b60006200047e828562000455565b602082019150620004908284620003f1565b91508190509392505050565b600081519050919050565b600081905092915050565b6000620004bf826200049c565b620004cb8185620004a7565b9350620004dd8185602086016200028d565b80840191505092915050565b6000620004f78284620004b2565b915081905092915050565b60805160a05160c0516104e862000530600039600060e20152600061012c0152600060a501526104e86000f3fe608060405234801561001057600080fd5b506004361061002b5760003560e01c8063e9b7055314610030575b600080fd5b61004a600480360381019061004591906102c5565b61004c565b005b60008083815260200190815260200160002060009054906101000a900460ff16156100a3576040517f5d904cb200000000000000000000000000000000000000000000000000000000815260040160405180910390fd5b7f000000000000000000000000000000000000000000000000000000000000000073ffffffffffffffffffffffffffffffffffffffff16633bc778e3847f0000000000000000000000000000000000000000000000000000000000000000610129886040516020016101159190610375565b6040516020818303038152906040526101ce565b867f0000000000000000000000000000000000000000000000000000000000000000876040518763ffffffff1660e01b815260040161016d969594939291906103bf565b60006040518083038186803b15801561018557600080fd5b505afa158015610199573d6000803e3d6000fd5b50505050600160008084815260200190815260200160002060006101000a81548160ff02191690831515021790555050505050565b60006008826040516020016101e3919061049b565b6040516020818303038152906040528051906020012060001c901c9050919050565b600080fd5b600073ffffffffffffffffffffffffffffffffffffffff82169050919050565b60006102358261020a565b9050919050565b6102458161022a565b811461025057600080fd5b50565b6000813590506102628161023c565b92915050565b6000819050919050565b61027b81610268565b811461028657600080fd5b50565b60008135905061029881610272565b92915050565b600080fd5b6000819050826020600802820111156102bf576102be61029e565b5b92915050565b60008060008061016085870312156102e0576102df610205565b5b60006102ee87828801610253565b94505060206102ff87828801610289565b935050604061031087828801610289565b9250506060610321878288016102a3565b91505092959194509250565b60008160601b9050919050565b60006103458261032d565b9050919050565b60006103578261033a565b9050919050565b61036f61036a8261022a565b61034c565b82525050565b6000610381828461035e565b60148201915081905092915050565b61039981610268565b82525050565b82818337600083830152505050565b6103bb610100838361039f565b5050565b60006101a0820190506103d56000830189610390565b6103e26020830188610390565b6103ef6040830187610390565b6103fc6060830186610390565b6104096080830185610390565b61041660a08301846103ae565b979650505050505050565b600081519050919050565b600081905092915050565b60005b8381101561045557808201518184015260208101905061043a565b83811115610464576000848401525b50505050565b600061047582610421565b61047f818561042c565b935061048f818560208601610437565b80840191505092915050565b60006104a7828461046a565b91508190509291505056fea2646970667358221220bd87fab2fecc9fa6abf86f2fdf5943f945070e4b16ae7923ff47b31c46cce5bf64736f6c634300080d0033","opcodes":"PUSH1 0xE0 PUSH1 0x40 MSTORE PUSH1 0x1 PUSH1 0xC0 SWAP1 DUP2 MSTORE POP CALLVALUE DUP1 ISZERO PUSH3 0x19 JUMPI PUSH1 0x0 DUP1 REVERT JUMPDEST POP PUSH1 0x40 MLOAD PUSH3 0xA18 CODESIZE SUB DUP1 PUSH3 0xA18 DUP4 CODECOPY DUP2 DUP2 ADD PUSH1 0x40 MSTORE DUP2 ADD SWAP1 PUSH3 0x3F SWAP2 SWAP1 PUSH3 0x341 JUMP JUMPDEST DUP3 PUSH20 0xFFFFFFFFFFFFFFFFFFFFFFFFFFFFFFFFFFFFFFFF AND PUSH1 0x80 DUP2 PUSH20 0xFFFFFFFFFFFFFFFFFFFFFFFFFFFFFFFFFFFFFFFF AND DUP2 MSTORE POP POP PUSH3 0xE2 PUSH3 0xAE DUP4 PUSH1 0x40 MLOAD PUSH1 0x20 ADD PUSH3 0x8E SWAP2 SWAP1 PUSH3 0x428 JUMP JUMPDEST PUSH1 0x40 MLOAD PUSH1 0x20 DUP2 DUP4 SUB SUB DUP2 MSTORE SWAP1 PUSH1 0x40 MSTORE PUSH3 0xF2 PUSH1 0x20 SHL PUSH3 0x1CE OR PUSH1 0x20 SHR JUMP JUMPDEST DUP3 PUSH1 0x40 MLOAD PUSH1 0x20 ADD PUSH3 0xC2 SWAP3 SWAP2 SWAP1 PUSH3 0x470 JUMP JUMPDEST PUSH1 0x40 MLOAD PUSH1 0x20 DUP2 DUP4 SUB SUB DUP2 MSTORE SWAP1 PUSH1 0x40 MSTORE PUSH3 0xF2 PUSH1 0x20 SHL PUSH3 0x1CE OR PUSH1 0x20 SHR JUMP JUMPDEST PUSH1 0xA0 DUP2 DUP2 MSTORE POP POP POP POP POP PUSH3 0x502 JUMP JUMPDEST PUSH1 0x0 PUSH1 0x8 DUP3 PUSH1 0x40 MLOAD PUSH1 0x20 ADD PUSH3 0x109 SWAP2 SWAP1 PUSH3 0x4E9 JUMP JUMPDEST PUSH1 0x40 MLOAD PUSH1 0x20 DUP2 DUP4 SUB SUB DUP2 MSTORE SWAP1 PUSH1 0x40 MSTORE DUP1 MLOAD SWAP1 PUSH1 0x20 ADD KECCAK256 PUSH1 0x0 SHR SWAP1 SHR SWAP1 POP SWAP2 SWAP1 POP JUMP JUMPDEST PUSH1 0x0 PUSH1 0x40 MLOAD SWAP1 POP SWAP1 JUMP JUMPDEST PUSH1 0x0 DUP1 REVERT JUMPDEST PUSH1 0x0 DUP1 REVERT JUMPDEST PUSH1 0x0 PUSH20 0xFFFFFFFFFFFFFFFFFFFFFFFFFFFFFFFFFFFFFFFF DUP3 AND SWAP1 POP SWAP2 SWAP1 POP JUMP JUMPDEST PUSH1 0x0 PUSH3 0x16C DUP3 PUSH3 0x13F JUMP JUMPDEST SWAP1 POP SWAP2 SWAP1 POP JUMP JUMPDEST PUSH1 0x0 PUSH3 0x180 DUP3 PUSH3 0x15F JUMP JUMPDEST SWAP1 POP SWAP2 SWAP1 POP JUMP JUMPDEST PUSH3 0x192 DUP2 PUSH3 0x173 JUMP JUMPDEST DUP2 EQ PUSH3 0x19E JUMPI PUSH1 0x0 DUP1 REVERT JUMPDEST POP JUMP JUMPDEST PUSH1 0x0 DUP2 MLOAD SWAP1 POP PUSH3 0x1B2 DUP2 PUSH3 0x187 JUMP JUMPDEST SWAP3 SWAP2 POP POP JUMP JUMPDEST PUSH1 0x0 DUP1 REVERT JUMPDEST PUSH1 0x0 DUP1 REVERT JUMPDEST PUSH1 0x0 PUSH1 0x1F NOT PUSH1 0x1F DUP4 ADD AND SWAP1 POP SWAP2 SWAP1 POP JUMP JUMPDEST PUSH32 0x4E487B7100000000000000000000000000000000000000000000000000000000 PUSH1 0x0 MSTORE PUSH1 0x41 PUSH1 0x4 MSTORE PUSH1 0x24 PUSH1 0x0 REVERT JUMPDEST PUSH3 0x20D DUP3 PUSH3 0x1C2 JUMP JUMPDEST DUP2 ADD DUP2 DUP2 LT PUSH8 0xFFFFFFFFFFFFFFFF DUP3 GT OR ISZERO PUSH3 0x22F JUMPI PUSH3 0x22E PUSH3 0x1D3 JUMP JUMPDEST JUMPDEST DUP1 PUSH1 0x40 MSTORE POP POP POP JUMP JUMPDEST PUSH1 0x0 PUSH3 0x244 PUSH3 0x12B JUMP JUMPDEST SWAP1 POP PUSH3 0x252 DUP3 DUP3 PUSH3 0x202 JUMP JUMPDEST SWAP2 SWAP1 POP JUMP JUMPDEST PUSH1 0x0 PUSH8 0xFFFFFFFFFFFFFFFF DUP3 GT ISZERO PUSH3 0x275 JUMPI PUSH3 0x274 PUSH3 0x1D3 JUMP JUMPDEST JUMPDEST PUSH3 0x280 DUP3 PUSH3 0x1C2 JUMP JUMPDEST SWAP1 POP PUSH1 0x20 DUP2 ADD SWAP1 POP SWAP2 SWAP1 POP JUMP JUMPDEST PUSH1 0x0 JUMPDEST DUP4 DUP2 LT ISZERO PUSH3 0x2AD JUMPI DUP1 DUP3 ADD MLOAD DUP2 DUP5 ADD MSTORE PUSH1 0x20 DUP2 ADD SWAP1 POP PUSH3 0x290 JUMP JUMPDEST DUP4 DUP2 GT ISZERO PUSH3 0x2BD JUMPI PUSH1 0x0 DUP5 DUP5 ADD MSTORE JUMPDEST POP POP POP POP JUMP JUMPDEST PUSH1 0x0 PUSH3 0x2DA PUSH3 0x2D4 DUP5 PUSH3 0x257 JUMP JUMPDEST PUSH3 0x238 JUMP JUMPDEST SWAP1 POP DUP3 DUP2 MSTORE PUSH1 0x20 DUP2 ADD DUP5 DUP5 DUP5 ADD GT ISZERO PUSH3 0x2F9 JUMPI PUSH3 0x2F8 PUSH3 0x1BD JUMP JUMPDEST JUMPDEST PUSH3 0x306 DUP5 DUP3 DUP6 PUSH3 0x28D JUMP JUMPDEST POP SWAP4 SWAP3 POP POP POP JUMP JUMPDEST PUSH1 0x0 DUP3 PUSH1 0x1F DUP4 ADD SLT PUSH3 0x326 JUMPI PUSH3 0x325 PUSH3 0x1B8 JUMP JUMPDEST JUMPDEST DUP2 MLOAD PUSH3 0x338 DUP5 DUP3 PUSH1 0x20 DUP7 ADD PUSH3 0x2C3 JUMP JUMPDEST SWAP2 POP POP SWAP3 SWAP2 POP POP JUMP JUMPDEST PUSH1 0x0 DUP1 PUSH1 0x0 PUSH1 0x60 DUP5 DUP7 SUB SLT ISZERO PUSH3 0x35D JUMPI PUSH3 0x35C PUSH3 0x135 JUMP JUMPDEST JUMPDEST PUSH1 0x0 PUSH3 0x36D DUP7 DUP3 DUP8 ADD PUSH3 0x1A1 JUMP JUMPDEST SWAP4 POP POP PUSH1 0x20 DUP5 ADD MLOAD PUSH8 0xFFFFFFFFFFFFFFFF DUP2 GT ISZERO PUSH3 0x391 JUMPI PUSH3 0x390 PUSH3 0x13A JUMP JUMPDEST JUMPDEST PUSH3 0x39F DUP7 DUP3 DUP8 ADD PUSH3 0x30E JUMP JUMPDEST SWAP3 POP POP PUSH1 0x40 DUP5 ADD MLOAD PUSH8 0xFFFFFFFFFFFFFFFF DUP2 GT ISZERO PUSH3 0x3C3 JUMPI PUSH3 0x3C2 PUSH3 0x13A JUMP JUMPDEST JUMPDEST PUSH3 0x3D1 DUP7 DUP3 DUP8 ADD PUSH3 0x30E JUMP JUMPDEST SWAP2 POP POP SWAP3 POP SWAP3 POP SWAP3 JUMP JUMPDEST PUSH1 0x0 DUP2 MLOAD SWAP1 POP SWAP2 SWAP1 POP JUMP JUMPDEST PUSH1 0x0 DUP2 SWAP1 POP SWAP3 SWAP2 POP POP JUMP JUMPDEST PUSH1 0x0 PUSH3 0x3FE DUP3 PUSH3 0x3DB JUMP JUMPDEST PUSH3 0x40A DUP2 DUP6 PUSH3 0x3E6 JUMP JUMPDEST SWAP4 POP PUSH3 0x41C DUP2 DUP6 PUSH1 0x20 DUP7 ADD PUSH3 0x28D JUMP JUMPDEST DUP1 DUP5 ADD SWAP2 POP POP SWAP3 SWAP2 POP POP JUMP JUMPDEST PUSH1 0x0 PUSH3 0x436 DUP3 DUP5 PUSH3 0x3F1 JUMP JUMPDEST SWAP2 POP DUP2 SWAP1 POP SWAP3 SWAP2 POP POP JUMP JUMPDEST PUSH1 0x0 DUP2 SWAP1 POP SWAP2 SWAP1 POP JUMP JUMPDEST PUSH1 0x0 DUP2 SWAP1 POP SWAP2 SWAP1 POP JUMP JUMPDEST PUSH3 0x46A PUSH3 0x464 DUP3 PUSH3 0x441 JUMP JUMPDEST PUSH3 0x44B JUMP JUMPDEST DUP3 MSTORE POP POP JUMP JUMPDEST PUSH1 0x0 PUSH3 0x47E DUP3 DUP6 PUSH3 0x455 JUMP JUMPDEST PUSH1 0x20 DUP3 ADD SWAP2 POP PUSH3 0x490 DUP3 DUP5 PUSH3 0x3F1 JUMP JUMPDEST SWAP2 POP DUP2 SWAP1 POP SWAP4 SWAP3 POP POP POP JUMP JUMPDEST PUSH1 0x0 DUP2 MLOAD SWAP1 POP SWAP2 SWAP1 POP JUMP JUMPDEST PUSH1 0x0 DUP2 SWAP1 POP SWAP3 SWAP2 POP POP JUMP JUMPDEST PUSH1 0x0 PUSH3 0x4BF DUP3 PUSH3 0x49C JUMP JUMPDEST PUSH3 0x4CB DUP2 DUP6 PUSH3 0x4A7 JUMP JUMPDEST SWAP4 POP PUSH3 0x4DD DUP2 DUP6 PUSH1 0x20 DUP7 ADD PUSH3 0x28D JUMP JUMPDEST DUP1 DUP5 ADD SWAP2 POP POP SWAP3 SWAP2 POP POP JUMP JUMPDEST PUSH1 0x0 PUSH3 0x4F7 DUP3 DUP5 PUSH3 0x4B2 JUMP JUMPDEST SWAP2 POP DUP2 SWAP1 POP SWAP3 SWAP2 POP POP JUMP JUMPDEST PUSH1 0x80 MLOAD PUSH1 0xA0 MLOAD PUSH1 0xC0 MLOAD PUSH2 0x4E8 PUSH3 0x530 PUSH1 0x0 CODECOPY PUSH1 0x0 PUSH1 0xE2 ADD MSTORE PUSH1 0x0 PUSH2 0x12C ADD MSTORE PUSH1 0x0 PUSH1 0xA5 ADD MSTORE PUSH2 0x4E8 PUSH1 0x0 RETURN INVALID PUSH1 0x80 PUSH1 0x40 MSTORE CALLVALUE DUP1 ISZERO PUSH2 0x10 JUMPI PUSH1 0x0 DUP1 REVERT JUMPDEST POP PUSH1 0x4 CALLDATASIZE LT PUSH2 0x2B JUMPI PUSH1 0x0 CALLDATALOAD PUSH1 0xE0 SHR DUP1 PUSH4 0xE9B70553 EQ PUSH2 0x30 JUMPI JUMPDEST PUSH1 0x0 DUP1 REVERT JUMPDEST PUSH2 0x4A PUSH1 0x4 DUP1 CALLDATASIZE SUB DUP2 ADD SWAP1 PUSH2 0x45 SWAP2 SWAP1 PUSH2 0x2C5 JUMP JUMPDEST PUSH2 0x4C JUMP JUMPDEST STOP JUMPDEST PUSH1 0x0 DUP1 DUP4 DUP2 MSTORE PUSH1 0x20 ADD SWAP1 DUP2 MSTORE PUSH1 0x20 ADD PUSH1 0x0 KECCAK256 PUSH1 0x0 SWAP1 SLOAD SWAP1 PUSH2 0x100 EXP SWAP1 DIV PUSH1 0xFF AND ISZERO PUSH2 0xA3 JUMPI PUSH1 0x40 MLOAD PUSH32 0x5D904CB200000000000000000000000000000000000000000000000000000000 DUP2 MSTORE PUSH1 0x4 ADD PUSH1 0x40 MLOAD DUP1 SWAP2 SUB SWAP1 REVERT JUMPDEST PUSH32 0x0 PUSH20 0xFFFFFFFFFFFFFFFFFFFFFFFFFFFFFFFFFFFFFFFF AND PUSH4 0x3BC778E3 DUP5 PUSH32 0x0 PUSH2 0x129 DUP9 PUSH1 0x40 MLOAD PUSH1 0x20 ADD PUSH2 0x115 SWAP2 SWAP1 PUSH2 0x375 JUMP JUMPDEST PUSH1 0x40 MLOAD PUSH1 0x20 DUP2 DUP4 SUB SUB DUP2 MSTORE SWAP1 PUSH1 0x40 MSTORE PUSH2 0x1CE JUMP JUMPDEST DUP7 PUSH32 0x0 DUP8 PUSH1 0x40 MLOAD DUP8 PUSH4 0xFFFFFFFF AND PUSH1 0xE0 SHL DUP2 MSTORE PUSH1 0x4 ADD PUSH2 0x16D SWAP7 SWAP6 SWAP5 SWAP4 SWAP3 SWAP2 SWAP1 PUSH2 0x3BF JUMP JUMPDEST PUSH1 0x0 PUSH1 0x40 MLOAD DUP1 DUP4 SUB DUP2 DUP7 DUP1 EXTCODESIZE ISZERO DUP1 ISZERO PUSH2 0x185 JUMPI PUSH1 0x0 DUP1 REVERT JUMPDEST POP GAS STATICCALL ISZERO DUP1 ISZERO PUSH2 0x199 JUMPI RETURNDATASIZE PUSH1 0x0 DUP1 RETURNDATACOPY RETURNDATASIZE PUSH1 0x0 REVERT JUMPDEST POP POP POP POP PUSH1 0x1 PUSH1 0x0 DUP1 DUP5 DUP2 MSTORE PUSH1 0x20 ADD SWAP1 DUP2 MSTORE PUSH1 0x20 ADD PUSH1 0x0 KECCAK256 PUSH1 0x0 PUSH2 0x100 EXP DUP2 SLOAD DUP2 PUSH1 0xFF MUL NOT AND SWAP1 DUP4 ISZERO ISZERO MUL OR SWAP1 SSTORE POP POP POP POP POP JUMP JUMPDEST PUSH1 0x0 PUSH1 0x8 DUP3 PUSH1 0x40 MLOAD PUSH1 0x20 ADD PUSH2 0x1E3 SWAP2 SWAP1 PUSH2 0x49B JUMP JUMPDEST PUSH1 0x40 MLOAD PUSH1 0x20 DUP2 DUP4 SUB SUB DUP2 MSTORE SWAP1 PUSH1 0x40 MSTORE DUP1 MLOAD SWAP1 PUSH1 0x20 ADD KECCAK256 PUSH1 0x0 SHR SWAP1 SHR SWAP1 POP SWAP2 SWAP1 POP JUMP JUMPDEST PUSH1 0x0 DUP1 REVERT JUMPDEST PUSH1 0x0 PUSH20 0xFFFFFFFFFFFFFFFFFFFFFFFFFFFFFFFFFFFFFFFF DUP3 AND SWAP1 POP SWAP2 SWAP1 POP JUMP JUMPDEST PUSH1 0x0 PUSH2 0x235 DUP3 PUSH2 0x20A JUMP JUMPDEST SWAP1 POP SWAP2 SWAP1 POP JUMP JUMPDEST PUSH2 0x245 DUP2 PUSH2 0x22A JUMP JUMPDEST DUP2 EQ PUSH2 0x250 JUMPI PUSH1 0x0 DUP1 REVERT JUMPDEST POP JUMP JUMPDEST PUSH1 0x0 DUP2 CALLDATALOAD SWAP1 POP PUSH2 0x262 DUP2 PUSH2 0x23C JUMP JUMPDEST SWAP3 SWAP2 POP POP JUMP JUMPDEST PUSH1 0x0 DUP2 SWAP1 POP SWAP2 SWAP1 POP JUMP JUMPDEST PUSH2 0x27B DUP2 PUSH2 0x268 JUMP JUMPDEST DUP2 EQ PUSH2 0x286 JUMPI PUSH1 0x0 DUP1 REVERT JUMPDEST POP JUMP JUMPDEST PUSH1 0x0 DUP2 CALLDATALOAD SWAP1 POP PUSH2 0x298 DUP2 PUSH2 0x272 JUMP JUMPDEST SWAP3 SWAP2 POP POP JUMP JUMPDEST PUSH1 0x0 DUP1 REVERT JUMPDEST PUSH1 0x0 DUP2 SWAP1 POP DUP3 PUSH1 0x20 PUSH1 0x8 MUL DUP3 ADD GT ISZERO PUSH2 0x2BF JUMPI PUSH2 0x2BE PUSH2 0x29E JUMP JUMPDEST JUMPDEST SWAP3 SWAP2 POP POP JUMP JUMPDEST PUSH1 0x0 DUP1 PUSH1 0x0 DUP1 PUSH2 0x160 DUP6 DUP8 SUB SLT ISZERO PUSH2 0x2E0 JUMPI PUSH2 0x2DF PUSH2 0x205 JUMP JUMPDEST JUMPDEST PUSH1 0x0 PUSH2 0x2EE DUP8 DUP3 DUP9 ADD PUSH2 0x253 JUMP JUMPDEST SWAP5 POP POP PUSH1 0x20 PUSH2 0x2FF DUP8 DUP3 DUP9 ADD PUSH2 0x289 JUMP JUMPDEST SWAP4 POP POP PUSH1 0x40 PUSH2 0x310 DUP8 DUP3 DUP9 ADD PUSH2 0x289 JUMP JUMPDEST SWAP3 POP POP PUSH1 0x60 PUSH2 0x321 DUP8 DUP3 DUP9 ADD PUSH2 0x2A3 JUMP JUMPDEST SWAP2 POP POP SWAP3 SWAP6 SWAP2 SWAP5 POP SWAP3 POP JUMP JUMPDEST PUSH1 0x0 DUP2 PUSH1 0x60 SHL SWAP1 POP SWAP2 SWAP1 POP JUMP JUMPDEST PUSH1 0x0 PUSH2 0x345 DUP3 PUSH2 0x32D JUMP JUMPDEST SWAP1 POP SWAP2 SWAP1 POP JUMP JUMPDEST PUSH1 0x0 PUSH2 0x357 DUP3 PUSH2 0x33A JUMP JUMPDEST SWAP1 POP SWAP2 SWAP1 POP JUMP JUMPDEST PUSH2 0x36F PUSH2 0x36A DUP3 PUSH2 0x22A JUMP JUMPDEST PUSH2 0x34C JUMP JUMPDEST DUP3 MSTORE POP POP JUMP JUMPDEST PUSH1 0x0 PUSH2 0x381 DUP3 DUP5 PUSH2 0x35E JUMP JUMPDEST PUSH1 0x14 DUP3 ADD SWAP2 POP DUP2 SWAP1 POP SWAP3 SWAP2 POP POP JUMP JUMPDEST PUSH2 0x399 DUP2 PUSH2 0x268 JUMP JUMPDEST DUP3 MSTORE POP POP JUMP JUMPDEST DUP3 DUP2 DUP4 CALLDATACOPY PUSH1 0x0 DUP4 DUP4 ADD MSTORE POP POP POP JUMP JUMPDEST PUSH2 0x3BB PUSH2 0x100 DUP4 DUP4 PUSH2 0x39F JUMP JUMPDEST POP POP JUMP JUMPDEST PUSH1 0x0 PUSH2 0x1A0 DUP3 ADD SWAP1 POP PUSH2 0x3D5 PUSH1 0x0 DUP4 ADD DUP10 PUSH2 0x390 JUMP JUMPDEST PUSH2 0x3E2 PUSH1 0x20 DUP4 ADD DUP9 PUSH2 0x390 JUMP JUMPDEST PUSH2 0x3EF PUSH1 0x40 DUP4 ADD DUP8 PUSH2 0x390 JUMP JUMPDEST PUSH2 0x3FC PUSH1 0x60 DUP4 ADD DUP7 PUSH2 0x390 JUMP JUMPDEST PUSH2 0x409 PUSH1 0x80 DUP4 ADD DUP6 PUSH2 0x390 JUMP JUMPDEST PUSH2 0x416 PUSH1 0xA0 DUP4 ADD DUP5 PUSH2 0x3AE JUMP JUMPDEST SWAP8 SWAP7 POP POP POP POP POP POP POP JUMP JUMPDEST PUSH1 0x0 DUP2 MLOAD SWAP1 POP SWAP2 SWAP1 POP JUMP JUMPDEST PUSH1 0x0 DUP2 SWAP1 POP SWAP3 SWAP2 POP POP JUMP JUMPDEST PUSH1 0x0 JUMPDEST DUP4 DUP2 LT ISZERO PUSH2 0x455 JUMPI DUP1 DUP3 ADD MLOAD DUP2 DUP5 ADD MSTORE PUSH1 0x20 DUP2 ADD SWAP1 POP PUSH2 0x43A JUMP JUMPDEST DUP4 DUP2 GT ISZERO PUSH2 0x464 JUMPI PUSH1 0x0 DUP5 DUP5 ADD MSTORE JUMPDEST POP POP POP POP JUMP JUMPDEST PUSH1 0x0 PUSH2 0x475 DUP3 PUSH2 0x421 JUMP JUMPDEST PUSH2 0x47F DUP2 DUP6 PUSH2 0x42C JUMP JUMPDEST SWAP4 POP PUSH2 0x48F DUP2 DUP6 PUSH1 0x20 DUP7 ADD PUSH2 0x437 JUMP JUMPDEST DUP1 DUP5 ADD SWAP2 POP POP SWAP3 SWAP2 POP POP JUMP JUMPDEST PUSH1 0x0 PUSH2 0x4A7 DUP3 DUP5 PUSH2 0x46A JUMP JUMPDEST SWAP2 POP DUP2 SWAP1 POP SWAP3 SWAP2 POP POP JUMP INVALID LOG2 PUSH5 0x6970667358 0x22 SLT KECCAK256 0xBD DUP8 STATICCALL 0xB2 INVALID 0xCC SWAP16 0xA6 0xAB 0xF8 PUSH16 0x2FDF5943F945070E4B16AE7923FF47B3 SHR CHAINID 0xCC 0xE5 0xBF PUSH5 0x736F6C6343 STOP ADDMOD 0xD STOP CALLER "},"methodIdentifiers":{"verifyAndExecute(address,uint256,uint256,uint256[8])":"e9b70553"}}}}}